:020000040800F2
:100000000050002021020008290200082D020008EB
:10001000A1020008A5020008ED020008000000008F
:100020000000000000000000000000003503000890
:1000300039030008000000003D0300085D0E0008C1
:100040005103000851030008510300085103000840
:100050005103000851030008510300085103000830
:100060005103000851030008510300085103000820
:100070005103000851030008A1130008ED13000804
:100080005103000851030008510300085103000800
:1000900051030008510300085103000851030008F0
:1000A00051030008510300085103000851030008E0
:1000B00051030008510300085103000851030008D0
:1000C00051030008510300085103000851030008C0
:1000D000B51200085103000851030008510300083D
:1000E00051030008510300085103000800000000FC
:1000F0000000000000000000000000000000000000
:1001000000000000000000005FF808F100B583B0B7
:1001100000F002FD304B314A1360314A1360314B1D
:10012000314A03E011681960043304322F498B42CD
:10013000F8D32A4B1A682E4B9A4204D1284B1A68DE
:100140002C4B9A4200D0FEE7234B2B4A13602B4ADC
:1001500013602B4B02E000221A600433294A9342B9
:10016000F9D3254B1B6813B9244B1B6803B1FEE779
:1001700000F0DEFC694601A800F05EFC224C234B37
:100180001C1BA410002504E01F4B53F82530984792
:100190000135AC42F8DC1E4C1E4B1C1BA410002584
:1001A00004E01B4B53F8253098470135AC42F8DC8E
:1001B0000099019800F088FF0546174C174B1C1B4F
:1001C000A41004E0013C144B53F824309847002C51
:1001D000F8DC284600F002FCBABADECA00000020B3
:1001E0008C00002000000020A422000890000020C5
:1001F0007856341232547698900000204807002038
:10020000900000204C0700207C0300087C030008BD
:100210007C0300087C0300087C0300087C030008C2
:1002200008B5FFF773FF00BF00BEFEE71EF0040F26
:100230000CBFEFF30880EFF309807146414A104785
:100240002DE9F04182B004468846134B5E6B9F6BEC
:100250009D6A1B6B13F0020F0DD00F4BDB6A002B56
:1002600009DA4BF6AB6100F0DFFC20B14FF0004241
:10027000094BDA620CE0094800F0F0FBCDF8008091
:100280003B4632462946204600F056FC00BEFEE7BB
:1002900002B0BDE8F08100BF00ED00E014200008CE
:1002A00000BEFEE71EF0040F0CBFEFF30880EFF373
:1002B00009807146244A10472DE9F04182B0044676
:1002C0008846084B5E6B9F6B9D6A074800F0C6FB33
:1002D000CDF800803B4632462946204600F02CFCF3
:1002E00000BEFEE700ED00E0242000081EF0040F31
:1002F0000CBFEFF30880EFF309807146134A1047F3
:100300002DE9F04182B004468846084B5E6B9F6B36
:100310009D6A074800F0A2FBCDF800803B463246BC
:100320002946204600F008FC00BEFEE700ED00E094
:100330003020000800BEFEE700BEFEE700BEFEE77C
:100340007047000041020008B902000801030008DC
:0403500000BEFEE706
:10035400A42200080000002090000020A42200082D
:100364000000000000000000900000204C07002066
:08037400000000000000000081
:10037C0038B504460D461F4B984226D0143398428C
:10038C0023D01433984220D0143398421DD0143308
:10039C0098421AD01433984217D01433984214D080
:1003AC0003F56273984210D0143398420DD0143375
:1003BC0098420AD01433984207D01433984204D090
:1003CC0040F229110C4800F039FB012D04D94FF4EF
:1003DC009571094800F032FB25B1236843F0010305
:1003EC00236038BD236823F001031B041B0C23601E
:1003FC0038BD00BF08000240881D000810B5044637
:10040C00431E012B40F29B80042800F098800828A2
:10041C0000F09580102800F09280202800F08F804A
:10042C00402800F08C80802800F08980B0F5807F17
:10043C0000F08580B0F5007F00F08180B0F5806F12
:10044C007DD0B0F5006F7AD0B0F5805F77D0B0F585
:10045C00005F74D0B0F5804F71D0B0F5004F6ED006
:10046C00B0F5803F6BD0B0F5003F68D0B0F5802F71
:10047C0065D0B0F5002F62D0B0F5801F5FD0B0F51D
:10048C00001F5CD0B0F5800F59D0B0F5000F56D0DE
:10049C00B0F1807F53D0B0F1007F50D0B0F1806FBD
:1004AC004DD0B0F1006F4AD02C4B984247D001335D
:1004BC00984244D00233984241D0043398423ED003
:1004CC00083398423BD01033984238D020339842AE
:1004DC0035D04033984232D0803398422FD003F538
:1004EC00807398422BD003F50073984227D003F504
:1004FC008063984223D0B0F1102F20D003F5C05365
:10050C0098421CD003F50053984218D003F5804351
:10051C00984214D003F50043984210D003F5803371
:10052C0098420CD003F50033984208D003F5802391
:10053C00984204D040F2B711094800F07FFA14F049
:10054C00805F02D0074B1B6801E0074B1B682342FE
:10055C0001D0012010BD002010BD00BF0100001013
:10056C00881D0008000402400000024010B504463B
:10057C0010F0704F02D0094B034003B924B940F27C
:10058C00AF21074800F05AFA14F0805F02D0054BF7
:10059C005C6010BD044B5C6010BD00BF0000F0EF50
:1005AC00881D00080004024000000240F8B5054612
:1005BC000C46464B98421BD003F58063984217D0EB
:1005CC0003F58063984213D003F5806398420FD0F3
:1005DC0003F5806398420BD003F58063984207D0F3
:1005EC0003F58063984203D0B221394800F026FA13
:1005FC00E3788BB1042B0FD0282B0DD0482B0BD0CC
:10060C00142B09D0102B07D01C2B05D0182B03D082
:10061C00B3212F4800F012FA23881BB9B4212C48BF
:10062C0000F00CFAE37803F00F06304613F0100FCD
:10063C000AD0A378013BDBB2022B03D9BB2124489F
:10064C0000F0FCF9A07830432378E3B12E68002346
:10065C0016E001229A40218832EA01010FD199005B
:10066C000F278F4026EA070600FA01F10E43E178C6
:10067C00282901D16A6102E0482900D12A6101339D
:10068C00072BE6D92E602388FF2B1ED96E6800231A
:10069C0018E003F1080101228A40218832EA0101A5
:1006AC000FD199000F278F4026EA070600FA01F1B7
:1006BC000E43E178282900D16A61E178482900D1FC
:1006CC002A610133072BE4D96E60F8BD00080140A4
:1006DC00B81D000838B504460D460E4B034003B94F
:1006EC0020B940F24A410C4800F0A8F9012D04D978
:1006FC0040F24B41084800F0A1F925B1074A936933
:10070C001C43946138BD054A936923EA040494613F
:10071C0038BD00BF0200C0FFEC1D000800100240F5
:10072C0038B504460D460E4B184200D120B940F2A4
:10073C0069410C4800F082F9012D04D940F26A415C
:10074C00084800F07BF925B1074AD3691C43D461F2
:10075C0038BD054AD36923EA0404D46138BD00BF0F
:10076C0000360181EC1D0008001002402DE9F0411B
:10077C0005460C46464B98420BD0A3F5784398425D
:10078C0007D003F58063984203D0A321414800F0C1
:10079C0055F9238863B1B3F5806F09D0B3F5004FD9
:1007AC0006D0B3F5404F03D0A6213A4800F046F9E5
:1007BC006388B3F5827F04D01BB1A721354800F0C4
:1007CC003DF9A388B3F5006F04D01BB1A8213148C3
:1007DC0000F034F9E3882BB1022B03D0A9212D486A
:1007EC0000F02CF92389012B03D9AA21294800F008
:1007FC0025F96389B3F5007F04D01BB1AB212548E3
:10080C0000F01CF9A3898BB1082B0FD0102B0DD045
:10081C00182B0BD0202B09D0282B07D0302B05D030
:10082C00382B03D0AC211B4800F008F9E3892BB11D
:10083C00802B03D0AD21174800F000F9238A1BB997
:10084C00AE21144800F0FAF82B8803F441572088A5
:10085C006688A188B4F806802289B4F80AC0A389F6
:10086C00B4F80EE03043084348EA000111434CEA67
:10087C0001021A434EEA02033B432B80AB8B9BB223
:10088C0023F400639BB2AB83238A2B82BDE8F081F7
:10089C00003001401C1E000838B504460D46124BB2
:1008AC0098420CD0A3F57843984208D003F58063A6
:1008BC00984204D040F2B7110C4800F0BFF8012D5B
:1008CC0004D94FF4DC71094800F0B8F82DB1238835
:1008DC009BB243F04003238038BD23889BB223F0A6
:1008EC0040039BB2238038BD003001401C1E000821
:1008FC0070B505460C461646194B98420CD0A3F51C
:10090C007843984208D003F58063984204D040F2B3
:10091C00EF11144800F092F8012E04D94FF4F8713D
:10092C00104800F08BF8712C08D0602C06D0502C9D
:10093C0004D040F2F1110B4800F080F8210901239A
:10094C0003FA01F189B226B1AB889BB21943A98095
:10095C0070BDAB88C94389B21940A98070BD00BF76
:10096C00003001401C1E000838B505460C46164BDD
:10097C0098420CD0A3F57843984208D003F58063D5
:10098C00984204D040F21631104800F057F8802CF1
:10099C0012D0402C10D0202C0ED0102C0CD0082CA7
:1009AC000AD0042C08D0022C06D0012C04D040F222
:1009BC001731064800F042F82B891C4201D0012067
:1009CC0038BD002038BD00BF003001401C1E00089F
:1009DC00FEE700BF08B5034800F052F80120FFF70E
:1009EC00F7FF00BF4C1E000808B50D4B1B6813B970
:1009FC000C4A0B4B1A600A4B1A68C31C23F00303F6
:100A0C00134409498B4206D900F054FD0C230360B2
:100A1C004FF0FF3008BD02490B60104608BD00BF07
:100A2C00940000204C070020004C002001230360A0
:100A3C00014B0B60704700BF0400002008B50A464C
:100A4C000146024800F004F8FFF7C4FFA01E00089E
:100A5C000FB400B583B004AB53F8042B0193802181
:100A6C00064800F037FE002803DD0146034800F07D
:100A7C0049F803B05DF804EB04B070479C0000200B
:100A8C0010B5044600F0F2FD0146204600F03AF89D
:100A9C000121024800F036F810BD00BF901F00087D
:100AAC002DE9F04385B004460F46435613BB04258D
:100ABC0028462146ABBE04461FE03546102E28BF03
:100ACC001025002306E014F9011B04AA1A4402F8AD
:100ADC00101C0133AB42F6D304AA1344002203F8D2
:100AEC00102CE9464FF0040840464946ABBE804600
:100AFC00761B00E00E46002EDFD1384605B0BDE86F
:100B0C00F08300BF08B5FFF7CBFF08BD08B500F0B8
:100B1C00FBF8024B024A9A6008BD00BF00ED00E0F2
:100B2C000000000808B500F017F908BDF8B5044638
:100B3C000D4617461E462648FFF78AFF21682548B2
:100B4C00FFF786FF61682448FFF782FFA1682348FE
:100B5C00FFF77EFFE1682248FFF77AFF2169214801
:100B6C00FFF776FF61692048FFF772FFA1691F4804
:100B7C00FFF76EFFE1691E48FFF76AFF1D48FFF79C
:100B8C0067FF29461C48FFF763FF1C4CE16A1C48B1
:100B9C00FFF75EFF216B1B48FFF75AFFE16B1A480A
:100BAC00FFF756FF15F0800F03D039461748FFF7B3
:100BBC004FFF15F4004F03D031461548FFF748FF9F
:100BCC001448FFF745FF06991348FFF741FFF8BD9E
:100BDC00F81E0008081F0008181F0008281F00082E
:100BEC00381F0008481F0008581F0008681F00081D
:100BFC00781F0008881F0008941F000800ED00E013
:100C0C00A41F0008B41F0008C41F0008D41F00084C
:100C1C00E41F0008F41F0008FC1F000883691A88F1
:100C2C008A4207D10268033A012A05D8023383614C
:100C3C0001207047002070470020704782B00023CD
:100C4C00019300932C4A136843F4803313602A4BAE
:100C5C001B6803F400330093019B01330193009B49
:100C6C001BB9019BB3F5A06FF1D1234B1B6813F497
:100C7C00003F02D00123009301E000230093009B6E
:100C8C00012B36D11D4B1A6842F010021A601A68FB
:100C9C0022F003021A601A6842F001021A60A3F5EE
:100CAC0080535A685A605A685A605A6842F4806293
:100CBC005A605A6822F47C125A605A6842F48812BC
:100CCC005A601A6842F080721A600B4B1B6813F062
:100CDC00007FFAD0084B5A6822F003025A605A6817
:100CEC0042F002025A60044B5B6803F00C03082BC1
:100CFC00F9D102B0704700BF001002400020024042
:100D0C0008B5FFF79BFF08BD08B5104B1A6842F0F9
:100D1C0001021A6059680E4A0A405A601A6822F099
:100D2C00847222F480321A601A6822F480221A60CB
:100D3C005A6822F4FE025A604FF41F029A60FFF7C1
:100D4C00DFFF4FF00062034B9A6008BD00100240B9
:100D5C000000FFF800ED00E01F4B5B6803F00C0394
:100D6C00042B06D0082B08D03BBB1C4A1C4B1A602A
:100D7C0026E01A4A1A4B1A6022E0174A5368526846
:100D8C00C3F38343023312F4803F05D1154A02FBAF
:100D9C0003F3134A136013E00F4A526812F4003F36
:100DAC0005D0104A02FB03F30D4A136008E00B4A0E
:100DBC0002FB03F30A4A136002E0084A084B1A606C
:100DCC00054B5B68C3F30313074AD35CDAB20449DF
:100DDC000B68D3400B6070470010024000127A0081
:100DEC001C00002000093D000C0000200A4B1B6871
:100DFC000A4AA2FB03239B09013BB3F1807F09D272
:100E0C00074A5360F021074B83F8231000239360AB
:100E1C0007231360704700BF1C000020D34D6210E5
:100E2C0010E000E000ED00E0034B1860024B1B6883
:100E3C00002BFBD1704700BF2C010020034B1B681B
:100E4C001BB1024A1368013B136070472C01002050
:100E5C0008B5FFF7F3FF08BD70B504460D461646FE
:100E6C001822002100F03FFB2660E560F723637435
:100E7C0065B9304600F024FBE06018B9002323600C
:100E8C00012070BD237C43F002032374237C43F0C8
:100E9C0001032374002070BD034688B14168826849
:100EAC00914201D1006800E00020914200D2501A1A
:100EBC00914202D91B68501A1844013880B270470D
:100ECC0000207047002834D02DE9F04188461446A4
:100EDC00054682B343680668B34201D300234360DE
:100EEC002846FFF7D9FFA04201D238B304466B68FD
:100EFC00F61A2746A64200D83746E8683A464146D5
:100F0C00184400F0E5FA6B683B446B60E61BB6B224
:100F1C0036B1324608EB0701E86800F0D9FA6E608A
:100F2C006A682B689A420CD300236B602046BDE89C
:100F3C00F081002070470020BDE8F0810020BDE862
:100F4C00F0812046BDE8F081034668B142688168B3
:100F5C008A4201D9501A00E000208A4202D21B6852
:100F6C00501A184480B2704700207047002834D0C3
:100F7C002DE9F04188461446054682B3836806681D
:100F8C00B34201D3002383602846FFF7DDFFA04264
:100F9C0001D238B30446AB68F61A2746A64200D8ED
:100FAC003746E9683A461944404600F091FAAB6876
:100FBC003B44AB60E61BB6B236B13246E96808EB8F
:100FCC00070000F085FAAE60AA682B689A420CD331
:100FDC000023AB602046BDE8F08100207047002064
:100FEC00BDE8F0810020BDE8F0812046BDE8F0812D
:100FFC00C8B170B504460E46FFF7A6FFA3680022E1
:10100C000CE02568AB4200D30023E568ED5CB542EB
:10101C0001D110B270BD0133013801320028F0D17A
:10102C004FF0FF3070BD4FF0FF307047D8B32DE953
:10103C00F04182B00546C2B317468846FFF72CFF35
:10104C0004462846FFF780FF064680B3697C284695
:10105C00FFF7CEFF002814DAACB1BE4229D300242E
:10106C0012E001220DF107012846FFF77FFF9DF9E1
:10107C00073008F8043095F91100834207D0013489
:10108C0002E0002400E000247E1EB442E9D3B44206
:10109C0003D1002308F8043003E00134002308F8DE
:1010AC000430A0B206E000207047002002E00020CF
:1010BC0000E0002002B0BDE8F08100BF10B5ADF536
:1010CC00007D3848FFF7DCFC374B19683748FFF7D1
:1010DC00BFFCFFF78BFE00F081F840F2FF123449A1
:1010EC003448FFF7B9FE4FF47A70FFF79DFE324B90
:1010FC001B78002BFBD0314C204600F0B7FA81B2A4
:10110C00204600F097F92E4B1B78002BFBD02A4B76
:10111C001B7823B340F2FF1269462648FFF786FF7F
:10112C00E8B10022244B1A709DF80120792A03D1D2
:10113C002448FFF7A5FC0AE09DF8023043EA02239D
:10114C0047F60172934202D11F48FFF799FC1B4CE2
:10115C00204600F08BFA81B2204600F06BF9184B58
:10116C001B78002BD3D00022154B1A70174B1B8900
:10117C0003F080039BB2002BF8D1154A136943F49A
:10118C0000731361134B1A680C4B9A42BFD1124B6C
:10119C001C68204600F06AFA81B2204600F04AF939
:1011AC00B5E700BF402000081C00002054200008B8
:1011BC0030050020300700201C0100206C200008A6
:1011CC001D01002080200008AC20000800380040E1
:1011DC0000080140200000202400002070B586B0DB
:1011EC0001210420FFF776FA01214FF48040FFF72C
:1011FC0097FA01210820FFF76DFA4FF40073ADF850
:10120C00143010268DF8176003258DF81650224CDB
:10121C0005A92046FFF7CAF9236943F4007323613B
:10122C001E48436823F070634360436843F0806357
:10123C0043604FF43043ADF814308DF8165004234E
:10124C008DF8173005A9FFF7B1F90024ADF800406F
:10125C00ADF80440ADF80640ADF80840ADF80A40D2
:10126C00ADF80C40ADF80E40ADF802400723ADF8D8
:10127C0010300B4D69462846FFF778FA01226021A1
:10128C002846FFF735FB01212846FFF705FB054BE8
:10129C005E60204606B070BD00080140000C0140A5
:1012AC000038004000E100E030B583B0304B1B89C2
:1012BC0013F0010F18D02E4B9B8803F040039BB208
:1012CC0093B12B4B9B89DBB28DF8073063B10122B4
:1012DC000DF107012748FFF7F5FD9DF80730F72BB7
:1012EC0002D10122244B1A70214B1B8903F00203FB
:1012FC009BB2002B39D01E4B9B8803F080039BB212
:10130C00002B32D01D4B1B88B3F5007F04D05A1E26
:10131C001B498A5CF72A1ED101221A4B1A70002431
:10132C00164B1C8018490B6943F400730B61174B67
:10133C00596821F070615960596841F080615960B9
:10134C000B4D60212846FFF7D3FA2246712128461F
:10135C00FFF7CEFA09E00A4AD05C05498881D15CD6
:10136C000B4AD1540133054A138003B030BD00BF82
:10137C0000380040300700201C0100201E01002016
:10138C00300100201D01002000080140000C01402C
:10139C003003002008B54FF40050FFF72FF8012858
:1013AC0016D102210B48FFF7DFFA0028F9D0802173
:1013BC000848FFF7D9FA0128F9D000210648FEF7B2
:1013CC00D7FF4FF40050FFF7D1F80122034B1A70EE
:1013DC0008BD00BF00380040440002401C01002042
:1013EC0008B54FF40050FFF709F801281AD1022173
:1013FC000D48FFF7B9FA0028F9D080210A48FFF709
:10140C00B3FA0128F9D000210848FEF7B1FF4FF4D8
:10141C000050FFF7ABF80122054B1A70602102480F
:10142C00FFF766FA08BD00BF0038004058000240C4
:10143C001D0100202DE9F04180460E46164D00227C
:10144C0060212846FFF754FA0027144B1F70144CE8
:10145C0032464146204600F03BF8A755114A138806
:10146C00E15CA981E05C1049C854013313800F4B37
:10147C005A6822F070625A605A6842F030625A60C0
:10148C00012271212846FFF733FA094A536943F4C4
:10149C0000735361BDE8F081003800401D0100204D
:1014AC00300100201E01002030030020000C014000
:1014BC0000080140014B1868704700BF88000020ED
:1014CC00024B0146186800F063B800BF880000208A
:1014DC0010B5431E0A44914204D011F8014B03F895
:1014EC00014FF8E710BD03460244934202D003F8C3
:1014FC00011BFAE77047000038B50546002944D0B7
:10150C0051F8043C0C1F002BB8BFE41800F0F0F8A5
:10151C001E4A1368114613B96360146030E0A3428D
:10152C000DD92268A018834201BF18685B68121895
:10153C00226063600C6023E0A24203D813465A6811
:10154C00002AF9D118681918A1420BD1216801445D
:10155C0058188242196013D11068526801441960FE
:10156C005A600DE002D90C232B6009E02168601849
:10157C00824201BF106852680918216062605C6089
:10158C002846BDE8384000F0B4B838BD240100202E
:10159C0070B5CD1C25F0030508350C2D38BF0C2576
:1015AC00002D064601DBA94202D90C23336046E02C
:1015BC0000F09EF8234B1C681A462146A1B10B681B
:1015CC005B1B0ED40B2B03D90B60CC18CD501EE03B
:1015DC008C420BBF63684B681360636018BF0C468A
:1015EC0015E00C464968E9E7174C23681BB93046EF
:1015FC0000F02CF820602946304600F027F8431CF8
:10160C0018D0C41C24F00304A0420DD12560304630
:10161C0000F06FF804F10B00231D20F00700C31A33
:10162C000ED05A42E25070BD211A304600F00EF82E
:10163C000130EBD10C233360304600F05AF8002017
:10164C0070BD00BF240100202001002038B5064CDD
:10165C000023054608462360FFF7C6F9431C02D158
:10166C00236803B12B6038BD28010020034613F812
:10167C00012B002AFBD1181A0138704730B5141E03
:10168C0005469BB0184604DA8B232B604FF0FF30D5
:10169C001DE04FF40273ADF80C300CBF234604F17F
:1016AC00FF33029305934FF6FF7300910491ADF84D
:1016BC000E3002461E9B6946284600F075F8431C06
:1016CC00BCBF8B232B6014B1009B00221A701BB083
:1016DC0030BD000007B5009313460A460146034887
:1016EC000068FFF7CBFF03B05DF804FB8800002017
:1016FC00704770472DE9F0478E6882469E420C4633
:10170C00914698463ED88A8912F4906F3AD0256853
:10171C00096902236F1A656905EB450595FBF3F51D
:10172C007B1C43449D4238BF1D4653050FD52946AB
:10173C00FFF72EFF064698B13A462169FFF7C8FE1F
:10174C00A38923F4906343F08003A38113E02A461A
:10175C0000F0E3FA064670B921695046FFF7CCFE5B
:10176C000C23CAF80030A3894FF0FF3043F040033C
:10177C00A381BDE8F08726613E442660464665613C
:10178C00ED1BA560464528BF4646494632462068B3
:10179C0000F0A8FAA36800209B1BA36023681E44DA
:1017AC002660BDE8F08700002DE9F04F9DB0039353
:1017BC008B8980461C060D4616460DD50B695BB908
:1017CC004021FFF7E5FE2860286118B90C23C8F802
:1017DC000030CDE040236B610023099320238DF86A
:1017EC002930DFF89CB130238DF82A3037463C463F
:1017FC0014F8013B1BB9B7EB060910D003E0252BFD
:10180C00F9D02746F3E74B46324629464046FFF7C8
:10181C0071FF013000F0A780099B4B4409933B7882
:10182C00002B00F0A08000234FF0FF3204930793AD
:10183C00059206938DF853301A93012605222178D0
:10184C004E4800F041FA671C049B38B14B4A3C46A9
:10185C00801A06FA00F018430490EFE7D90644BF4B
:10186C0020228DF853201A0744BF2B228DF85320C9
:10187C0022782A2A03D0079A00210A200BE0039A27
:10188C00111D12680391002A10DA524243F0020033
:10189C00079204900BE027463B780134303B092B30
:1018AC0003D800FB02320121F5E701B107923B7826
:1018BC002E2B1ED17B782A2B0AD1039B02371A1DA3
:1018CC001B680392002BB8BF4FF0FF33059310E059
:1018DC00002319460593781C0A2407463A780130F0
:1018EC00303A092A03D804FB01210123F5E703B19F
:1018FC00059103223978224800F0E6F940B14023E3
:10190C00CBEB000003FA00F0049B01371843049062
:10191C00397806221B487E1C8DF8281000F0D4F96B
:10192C0088B1194B33B9039B073323F007030833F2
:10193C00039314E003AB00932A46144B04A94046CE
:10194C00AFF3008007E003AB00932A460F4B04A9CA
:10195C00404600F093F8B0F1FF3F824603D0099B5C
:10196C005344099342E7AB895B0601D4099801E023
:10197C004FF0FF301DB0BDE8F08F00BF70220008A3
:10198C00762200087A2200080000000001170008E7
:10199C002DE9F04791461F460A698B68064693422B
:1019AC00B8BF1346C9F8003091F843200C46DDF857
:1019BC00208012B10133C9F800302368990642BF68
:1019CC00D9F800300233C9F80030256815F0060547
:1019DC0010D104F1190A07E001235246394630466A
:1019EC00C04701301AD00135E368D9F800209B1AA2
:1019FC009D42F1DB94F843302268003318BF012379
:101A0C0092060FD5E118302081F843005A1C94F847
:101A1C0045102244023382F8431003E04FF0FF30AC
:101A2C00BDE8F08704F1430239463046C047013027
:101A3C00F4D02268D9F80050E36802F00602042AB8
:101A4C0008BF5D1B2269A3680CBF25EAE57500255C
:101A5C009342C4BF9B1AED184FF000091A344D4540
:101A6C0009D00123224639463046C0470130D5D033
:101A7C0009F10109F3E70020BDE8F0872DE9F043F7
:101A8C0017460A7E85B06E2A984606460C460C9B75
:101A9C0001F1430E00F0AE8011D8632A22D009D890
:101AAC00002A00F0BB80582A40F0CA8081F84520FB
:101ABC00834955E0642A1ED0692A1CD0C0E0732AE1
:101ACC0000F0B08009D86F2A2ED0702A40F0B88070
:101ADC000A6842F020020A603EE0752A24D0782A77
:101AEC003AD0ADE01A6801F14205111D1960136876
:101AFC0084F84230A8E021681A6811F0800F02D0F7
:101B0C00111D196008E011F0400F02F10401196079
:101B1C0002D0B2F9003000E01368002B3CDA2D2221
:101B2C005B4284F8432037E021681A6811F0800F7B
:101B3C0002D0111D196007E011F0400F02F10401F1
:101B4C00196001D0138800E01368227E5C496F2A6B
:101B5C0014BF0A2208221BE078225A4984F8452037
:101B6C002268186812F0800F00F104051D6003D183
:101B7C00550601D5038800E00368D00744BF42F046
:101B8C00200222601BB9226822F02002226010225F
:101B9C00002084F8430001E049490A226568002DC1
:101BAC00A56008DB206820F0040020602BB9002D14
:101BBC007DD175460CE0002B79D07546B3FBF2F065
:101BCC0002FB1033CB5C05F8013D03460028F5D130
:101BDC00082A0BD12368DA0708D5236962689A4270
:101BEC00DEBF302305F8013C05F1FF35C5EB0E03D4
:101BFC0023612EE008681A6810F0800F496903D041
:101C0C00101D1860136808E010F0400F02F104007A
:101C1C001860136801D0198000E01960002323615B
:101C2C00754616E01A68111D196015680021626866
:101C3C00284600F049F808B1401B6060636804E076
:101C4C0004F1420584F8422001232361002384F827
:101C5C004330CDF800803B4603AA21463046FFF7BF
:101C6C0097FE013002D14FF0FF3026E023692A465F
:101C7C0039463046C0470130F5D023689B0710D554
:101C8C00002504F1190907E001234A46394630467C
:101C9C00C0470130E7D00135E368039A9B1A9D4297
:101CAC00F2DBE068039B9842B8BF184605E00B785E
:101CBC0004F1420584F842308AE705B0BDE8F083B0
:101CCC00812200089222000810B5C9B20244904249
:101CDC00034605D01C7801308C42F8D1184610BD53
:101CEC00002010BD884210B501EB020301D8421E42
:101CFC000BE09842FBD28118D21AD34204D013F8CD
:101D0C00014D01F8014DF8E710BD994204D011F8CE
:101D1C00014B02F8014FF8E710BDF8B50746154620
:101D2C000E4621B91146BDE8F840FFF731BC1AB98F
:101D3C00FFF7E2FB2846F8BD00F015F885420ED9F6
:101D4C0029463846FFF724FC044650B131462A4652
:101D5C00FFF7BEFB31463846FFF7CEFB01E03046BD
:101D6C00F8BD2046F8BD51F8040C0028BEBF091878
:101D7C0051F8043CC0180438704700002E2E2F7305
:101D8C00797374656D2F7372632F73746D33326650
:101D9C00312D7374647065726970682F73746D3350
:101DAC0032663130785F646D612E63002E2E2F7396
:101DBC00797374656D2F7372632F73746D33326620
:101DCC00312D7374647065726970682F73746D3320
:101DDC0032663130785F6770696F2E6300000000E7
:101DEC002E2E2F73797374656D2F7372632F73742A
:101DFC006D333266312D7374647065726970682F3F
:101E0C0073746D3332663130785F7263632E6300A6
:101E1C002E2E2F73797374656D2F7372632F7374F9
:101E2C006D333266312D7374647065726970682F0E
:101E3C0073746D3332663130785F7370692E630062
:101E4C0061626F727428292C2065786974696E67D9
:101E5C002E2E2E002C2066756E6374696F6E3A20E0
:101E6C0000000000617373657274696F6E20222527
:101E7C007322206661696C65643A2066696C652022
:101E8C00222573222C206C696E6520256425732510
:101E9C00730A00006173736572745F706172616DB7
:101EAC002829206661696C65643A2066696C652036
:101EBC00222573222C206C696E652025640A000093
:101ECC006D61696E28617267633D25642C206172B7
:101EDC0067763D5B000000002C2000002225732259
:101EEC00000000005D293B0A000000005374616390
:101EFC006B206672616D653A0A000000205230203A
:101F0C003D2020253038580A000000002052312096
:101F1C003D2020253038580A000000002052322085
:101F2C003D2020253038580A000000002052332074
:101F3C003D2020253038580A000000002052313254
:101F4C00203D20253038580A00000000204C52203B
:101F5C003D2020253038580A000000002050432036
:101F6C003D2020253038580A0000000020505352E4
:101F7C00203D20253038580A000000004653522FCF
:101F8C004641523A0A0000002043465352203D205D
:101F9C0020253038580A00002048465352203D2056
:101FAC0020253038580A00002044465352203D204A
:101FBC0020253038580A00002041465352203D203D
:101FCC0020253038580A0000204D4D464152203D06
:101FDC0020253038580A00002042464152203D202E
:101FEC0020253038580A00004D6973630A00000040
:101FFC00204C522F4558435F52455455524E3D206C
:10200C00253038580A0000005B48617264466175DF
:10201C006C745D0A000000005B4275734661756C60
:10202C00745D0A005B55736167654661756C745D20
:10203C000A00000048656C6C6F2041524D20576FB0
:10204C00726C64210000000053797374656D206319
:10205C006C6F636B3A20257520487A0A00000000EB
:10206C00F0797665722E656E6572676F2D302E3243
:10207C002E34F7002052656365697665206D6573B3
:10208C00736167653A2056657273696F6E206E7561
:10209C006D6265722071756572792E0A0000000000
:1020AC002052656365697665206D6573736167653C
:1020BC003A20496E697420636F6D6D616E642E0AEF
:1020CC00000000005549443D456E67696E65436FDD
:1020DC006E74726F6C32373138323A6F753D456EB3
:1020EC0067696E65436F6E74726F6C32373138325C
:1020FC003A706172616D657465724E616D653D46D5
:10210C0075656C5F566F6C3A646573637269707455
:10211C00696F6E3D566F6C756D65206F66206675C8
:10212C00656C206C6576656C3A76616C75653D31D5
:10213C0030303A7072657656616C75653D303A7028
:10214C006F7765723D303A77723D46414C53453A54
:10215C00737461743D545255453A72656376657279
:10216C004164643D46414C53453A726563766572F1
:10217C004E616D653D456E67696E65436F6E747239
:10218C006F6C32373138323A7265637665724E61F4
:10219C006D653D456E67696E65436F6E74726F6CED
:1021AC0032373138333A6D6F6469667954696D65CD
:1021BC003D32303134313232303137313532365ABA
:1021CC003A7265637665724E616D653D456E676901
:1021DC006E65436F6E74726F6C32373138343B00FE
:1021EC005549443D456E67696E65436F6E74726FF9
:1021FC006C32373138323A6F753D456E67696E65B2
:10220C00436F6E74726F6C32373138323A64657367
:10221C006372697074696F6E3D416C6C2070656F90
:10222C00706C6520696E206F7267616E6973617482
:10223C00696F6E3A6F626A656374636C6173733D48
:10224C006465766963654D6F64756C653A77723D4C
:10225C0046414C53453A737461743D46414C534569
:10226C003A000000232D302B2000686C4C00656672
:10227C0067454647003031323334353637383941CB
:10228C0042434445460030313233343536373839E1
:07229C0061626364656600E6
:1022A400785634129800002000000000000000005E
:1022B400000000000102030406070809006CDC02A8
:1022C400EC210008D02000080000000000000000FD
:1022D40000000000000000000000000000000000FA
:1022E40000000000000000000000000000000000EA
:1022F40000000000000000000000000000000000DA
:1023040000000000000000000000000000000000C9
:1023140000000000000000000000000000000000B9
:1023240000000000000000002800002032547698CD
:040000050800010DE1
:00000001FF
